:02000002D0002C
:1040000000400D0084900D00000006000C0005012A
:084010000401BD0B00000000DB
:04401800F87F0D0020
:10401C0009480A49884208B505D0094A824202D0AB
:10402C00121A03F05DFF0748074A0021121A03F029
:10403C007FFF014808BD00BF04E50320F48F0D008D
:10404C006CE503206CE50320F0E7032070B5074E08
:10405C00074C03F01DFDA41BA4080025A54200D1AC
:10406C0070BD56F8043B98470135F7E7CC8F0D002F
:10407C00F08F0D0000F058B808B500F0D5F8BDE889
:10408C00084003F0C7BC01F0B5BD01F0B3BD01F0B1
:10409C00B9BD000008B5034A00210C2001F006FD53
:1040AC00FEE700BFB9570D000078B0FA80F0400968
:1040BC0070470123037070472DE9F041144E154FE2
:1040CC0004464518AC4221D02378312BA04612D19E
:1040DC000F4800F015FF0E48012100F052FD0022A0
:1040EC004FF001130A483946C6E9042303F031F9AD
:1040FC00074801F071F998F80030302B04F10104F5
:10410C00E0D102F09DF902F02BFBDBE7BDE8F0817A
:10411C00B8E503200C800D0010B50446006808B10A
:10412C0001F070FD204610BD30B597B002F088F953
:10413C0002F0D4F902F084F9364A01460DA802F0D7
:10414C00E9FD0DA802F051FA02F07AF9324A014663
:10415C000DA802F0DFFD0DA802F047FA0DA802F041
:10416C0000F82E4903A801F0FFFE03A908A801F0EE
:10417C00FBFE08A801F03EFF044608A8002C41D124
:10418C0001F057FF0094ADF80A0002230DF10A026A
:10419C0003210DA801F0DAFF214C02F051F90022A5
:1041AC000DA902F0BBF9012003F032F9204601F011
:1041BC0017FA204600F0A4FE0121204600F0E1FC95
:1041CC0000254FF00113C4E904531649204603F0AF
:1041DC00C0F8204601F000F9FF2108462A4603F0FA
:1041EC0027F90121FF2003F036F902F029F902F03A
:1041FC00A8F90028F9D00021FF22084603F018F98D
:10420C0017B030BD01F01AFF0023009302461023B3
:10421C000721BEE730E6032028E603207CE50320D7
:10422C00B8E5032008860D0000B593B00B4901A832
:10423C0003F027FA039A05A901A80023013203F021
:10424C0046FA039A06480023013205A901F0F0FF53
:10425C0001A803F0CBF913B05DF804FB17800D0037
:10426C0030E60320F0B5164691B00022C0E90022DA
:10427C0004460D460BAF194606A801F075FE1699BB
:10428C00384601F071FE33788DF81430189B029388
:10429C00179B2046CDE9007305AA06AB294602F010
:1042AC0017FC204611B0F0BD2DE9F043002191B070
:1042BC00344D354EDFF80C81344FDFF80C91012072
:1042CC0001F014FC0024324BAB602C60AC80AC7160
:1042DC00032001F0FBFB28462E4D2F49324603F0FC
:1042EC00C5FC0721284601F04DF928462B4D2C49D9
:1042FC00324603F0BBFC2B49284601F01BFF2A4930
:10430C00404601F017FF2949384601F013FF1023EE
:10431C00394606A88DF8143001F026FE29460BA864
:10432C0001F022FE224F23490BAB009305AA06ABEA
:10433C00CDE901444846FFF795FF324639464846D9
:10434C0003F094FC0423414606A88DF8143001F0C8
:10435C000BFE29460BA801F007FE174D174B0193D6
:10436C000BAB009305AA06AB154902942846FFF740
:10437C0079FF32463946284603F078FC11B0BDE887
:10438C00F08300BF70E503206CE50320A4E5032057
:10439C000000FFFFB8E5032025410D007CE503205C
:1043AC005D550D0031800D0056800D007B800D0099
:1043BC00F7650D00A0800D0028E60320C5400D0018
:1043CC00A3800D0090E5032030E603202DE9F04F8B
:1043DC0085B01F46BDF93880BDF83C30A8EB02090A
:1043EC00A7EB010AB9F1000FB8BFC9F10009BAF186
:1043FC00000FB8BFCAF1000AD14583460C461546DA
:10440C0004DD3A462C4647460D469046BC4205DD37
:10441C002A464546904622463C4617463E1BB2B2BB
:10442C000092A8EB0502002AB8BF52420192C6F3D3
:10443C00C03202FA86F64545B4BF01224FF0FF3276
:10444C0076100292BC421CDCDBF800200393D145B1
:10445C00D2F81880C7BF294622462A46214658461C
:10446C00C047019A039BB61AB1B236B2002E05DAD8
:10447C00029A1544009A56182DB236B2013424B261
:10448C00E0E705B0BDE8F08F704710B4046824690C
:10449C00A4465DF8044B604730B40468BDF808507E
:1044AC000295A46BA44630BC604730B40468BDF8D8
:1044BC0008500295E46BA44630BC604770B4BDF95B
:1044CC000C50BDF810600468CDE90356246CA4466A
:1044DC0070BC60472DE9F3411C460368BDF8208091
:1044EC005B6905461646013C34440F4624B2984796
:1044FC002B68CDF8048000949C6A28463B463246D3
:10450C003946A0472B68DB6A284602B0BDE8F0416B
:10451C0018472DE9F3411D460368BDF820805B69FF
:10452C00044617460E469847CDE9007822686B1E64
:10453C003344956A20461BB23A463146A847236855
:10454C00DB6A204602B0BDE8F04118472DE9F3477D
:10455C001E460368BDF928905B69BDF82C800C469B
:10456C000546174698472644B4422B680BDACDF81B
:10457C000080D3F820A021464B463A462846013409
:10458C00D04724B2F0E7DB6A284602B0BDE8F0471A
:10459C00184713B502680191B0F90E100091146C14
:1045AC00B0F90C3000221146A04702B010BD2DE925
:1045BC00F3471D460368BDF82C805B69BDF9289054
:1045CC0004460F46164698472368CDF80080D3F86A
:1045DC0024A032462B4639462046D0472368CDF8D6
:1045EC00008009F1FF323244D3F824A039462B461F
:1045FC00204612B2D0472368CDF80080D3F820A013
:10460C0032464B4639462046D0476B1ED919236893
:10461C00CDF800801D6A20464B46324609B2A847A9
:10462C002368DB6A204602B0BDE8F04718477047A4
:10463C002DE9F74399421646BDF92870BDF82C9028
:10464C00026880460D461C4613D1BE42C8BF334695
:10465C00CDF82890C4BF3E461F467B1C946B9B1B19
:10466C001BB2324629464046A44603B0BDE8F0438F
:10467C006047BE420AD19942C2BF0B4625461C4632
:10468C00631CCDF82890D46B5B1BE9E75369984702
:10469C00CDE90079D8F8003040469F6A324623466F
:1046AC002946B847D8F80030DB6A404603B0BDE86D
:1046BC00F043184701F00303B0F90A208376C907C9
:1046CC00B0F9083059BF8381C2818281C3817047A0
:1046DC0030B54281C281074A074D01810024818196
:1046EC004FF0FF31C0E905124460056004610477A6
:1046FC00046230BD01010001B0850D002DE9F04FC1
:10470C0089B0CDE902120268BDF948800493BDF965
:10471C004C3052690593BDF850A00446904718F1EF
:10472C0007024FF0000648BF08F10E024FEAE20BF9
:10473C0001963546039B019ABDF904109A18059B06
:10474C008B4212B227DD049B33444FF000090693D1
:10475C000FFA89F080451FFA89F117DD4F0705BF65
:10476C00069BC0106D001D5C18BFEDB22B060AD560
:10477C00029B206807921944836909B21F462046A0
:10478C005346B847079A09F10109E1E7019B013348
:10479C0001935E44CEE72368DB6A204609B0BDE88E
:1047AC00F04F18472DE9F04F2DED028B91B01646C6
:1047BC00026ABDF874809DF878509DF87C40039196
:1047CC001F46BDF8703004938346002A40F0C58024
:1047DC00B0F90C308B4240F34C81B0F90E30B3423F
:1047EC0040F34781062313FB0513002B40F3418153
:1047FC0006EBC403002B40F33C81037F1BB9AF2FA6
:10480C0084BF0137FFB2DBF8003058465B6998472C
:10481C000522099200220592984A07EB8703D318C8
:10482C000C93B3B20693059A0C9B9B5C0793ABB2AB
:10483C000B93BDF80C300893039B02FB05F919FA96
:10484C0083F90FFA89F308EE103A08230A93039BB5
:10485C0002EB030A4FF000090FFA8AFA079ADBF809
:10486C000030D20752D5012D1FFA89F23ED1012C0E
:10487C003CD19B6906991F46049B0A4412B25146CF
:10488C005846B84709F101034FFA83F9079B5B08B7
:10489C0007930A9B013B13F0FF030A93DED1059F9C
:1048AC0001377BB20593099B013B13F0FF0309937E
:1048BC00B9D1049B43450FD0012DDBF800303BD11F
:1048CC00012C39D10899CDF8008005311C6A32468B
:1048DC00082309B25846A047DBF80030DB6A58467B
:1048EC0011B0BDEC028BBDE8F04F1847069914FBD4
:1048FC0002F20A44049901910094DB6918EE101A33
:10490C001F4612B22B465846B847BBE7049A42459D
:10491C00B8D0012D1FFA89F207D1012C05D19B6962
:10492C0006991F460A444346A8E70699CDF8048029
:10493C0014FB02F20A44DFE70B9ACDF8048002EB79
:10494C008201089AE4000A4411460094DC6932465C
:10495C002B4609B25846A047BEE7137A5168126835
:10496C000D92FF1AFFB201EBC70331F83720069204
:10497C009A780992DA780B92012D93F9052093F924
:10498C0006A00A9201D8012C57D9BDF928300893FA
:10499C000FFA8AF30793DBF8003058465B699847A7
:1049AC00B3B24FF000080E931AFA86F3C14647468D
:1049BC000F930B9B9F428FD2079B0E9A3B4403FB9A
:1049CC000423002205920F9A1BB202EB070A08EE91
:1049DC00103A0FFA8AFA4346099A0599914241D244
:1049EC005A1CD2B25B070C9207D1069B06990D9A02
:1049FC0001339BB212F80190069319F0800F12D07C
:104A0C00012DDBF80030BDF80C101AD1012C18D197
:104A1C000A9A9B691144059A11441E465246049BFE
:104A2C0009B25846B047059E0136F3B24FEA490920
:104A3C0005935FFA89F90C9BCEE70023CDE9073388
:104A4C00A9E70598089A024402FB0511049ACDE9DE
:104A5C000042DB6918EE102A1E4609B22B46584656
:104A6C00B047E0E7099B013798445FFA88F8FFB23A
:104A7C009FE711B0BDEC028BBDE8F08FA6800D0056
:104A8C00F0B5026A85B004460B46002A34D10A29D7
:104A9C0008D1438A0282427E03EBC2036382012067
:104AAC0005B0F0BD0D29FAD0E17E007E657E71B1B6
:104ABC00B4F91060062111FB0061B4F90C60B1422D
:104ACC00C1BFB4F91210228201EBC5026282E28AE4
:104ADC000192A28A0092CDE90205B4F91220B4F930
:104AEC0010102046FFF75EFE237E228A03EB430361
:104AFC0002EB43032382D2E70A2907D10023038266
:104B0C00937A417E428A01FB0323C7E70D29C6D065
:104B1C00157AA942C3D3517A9942C0D351685D1B0F
:104B2C00EDB201EBC505AF782FB3E97819B3E17E8F
:104B3C00007E667E91B195F905103944B4F9107078
:104B4C0000FB0171B4F90C70B94207DD0027278214
:104B5C00B4F91210927A02FB06126282E28A019276
:104B6C00A28A0092CDE90206B4F91220B4F9101011
:104B7C002046FFF717FE2979237E228A01FB0323A7
:104B8C00B8E7012938BF012101764176704770479B
:104B9C0010B51021044603F06EF8204610BD0EB47B
:104BAC0003B503AB002153F8042B019302F0F9FB7E
:104BBC0002B05DF804EB03B07047000073B5044617
:104BCC0008462279A36832B1A3B90B4902B0BDE8FB
:104BDC00704002F0ABBB094A267B094D0949647B46
:104BEC00012E18BF2946CDE900140749FFF7D7FF5E
:104BFC0002B070BD054AEFE711860D0008860D0066
:104C0C000D860D0009860D0027860D0000860D000F
:104C1C0010B5044B03600446C06A08B100F0F2FF03
:104C2C00204610BD008B0D0010B50446FFF7F0FFB9
:104C3C002046502103F01FF8204610BD002910B566
:104C4C004BDBB0F90C408C4247DD002A45DBB0F958
:104C5C000E40944241DD847E022C1FD0032C26D0C2
:104C6C00012C04D10489D24314440A4621B2012BED
:104C7C0023D0022B32D083BB002A13460489C06A8E
:104C8C00B8BFD31DDB1013FB041102F00702012384
:104C9C009340425C22EA030242541EE00489C94359
:104CAC0021444489D243224409B212B2DFE7448939
:104CBC00C9430C44114622B2D9E7002A0489134691
:104CCC00B8BFD31DDB1013FB0411C36A02F007003D
:104CDC0001228240585C02435A5410BD002A1346EC
:104CEC000489C06AB8BFD31DDB1013FB041102F09A
:104CFC000702012303FA02F2435C5A40CCE710B5D9
:104D0C00044690F93600012180B202F042FF606A3D
:104D1C0018B1BDE8104002F0DCBB10BD70B5044604
:104D2C001D460026FFF7D4FC114B2360666215B9B3
:104D3C0002F074FF0546FF2384F8333084F83630D4
:104D4C009DF9103084F837300A4BA363012384F8A3
:104D5C003C30059BA3644FF6FF72069BA286C4E908
:104D6C000A562664A4F84460E364204670BD00BF74
:104D7C00008B0D004C860D00F8B50446806A0D467C
:104D8C0090B194F9301002F06BF9A06A036800211D
:104D9C009B689847A06A036829469B689847A06A55
:104DAC00BDE8F84002F063B994F93530014698B289
:104DBC0002F0EFFE606A20B12946BDE8F84002F02F
:104DCC000FBC0826802794F9330005EA070180B24E
:104DDC0002F0DFFE94F93400012180B202F0D9FE1A
:104DEC0094F93400002180B202F0D3FE013E4FEA68
:104DFC005707E8D1F8BD38B50446806A0D4680B136
:104E0C00A16C02F01FF9002D204614BFA721A6218A
:104E1C00FFF7B2FFA06A88B1E16CBDE8384002F040
:104E2C0011B9606A18B104F1380102F06BFB94F906
:104E3C003600002180B202F0ACFEE4E72046BDE86B
:104E4C003840FFF75CBF2DE9F8430446806A0D46F5
:104E5C008F1840B394F9301002F002F9A06A03687D
:104E6C0000219B6898470126BD42A06A17D01F2ECF
:104E7C000CD902F0FCF894F93010A06A02F0F0F8AA
:104E8C00A06A036800219B6898470126A06A15F860
:104E9C00011B036801369B689847F6B2E4E7BDE84E
:104EAC00F84302F0E4B894F93530014698B202F0B8
:104EBC0070FEAF4222D0606A15F8019B18B14946CA
:104ECC0002F08EFBF5E708264FF0800894F93300CA
:104EDC0009EA080180B202F05CFE94F93400012169
:104EEC0080B202F056FE94F93400002180B202F038
:104EFC0050FE013E4FEA5808E8D1DAE7BDE8F883E6
:104F0C00B0F90A30DA1D48BF03F10E02B0F90830CF
:104F1C00C06AD2105A43002103F00AB82DE9FF41B0
:104F2C001E46C36A9DF8288004460F461546B3B149
:104F3C002046FFF7E5FFB4F90A00B4F90810202861
:104F4C001FDC20230122CDE9013220387323733971
:104F5C00009300EBD070894B01EBD1711FE0B0F9DD
:104F6C000A30D81D48BF03F10E00B4F90830C01048
:104F7C00584300F03FFEE0620028D9D104B0BDE8F0
:104F8C00F08140234FF0010CCDE9013C5223403815
:104F9C00523900937A4B00EBD07001EBD17140F396
:104FAC004F0241F34F012046FFF7A8FBA06A84F89B
:104FBC003170002878D0002D74D1B4F90A30202B30
:104FCC000CBF3C253D2584F83050B8F1000F01D0C2
:104FDC0002F03CF8FEB194F9370000281BDB0121EC
:104FEC0080B202F0C5FD94F93700012180B202F0C5
:104FFC00D0FD012000F02EFE94F93700002180B284
:10500C0002F0C7FD0A2000F025FE94F937000121BB
:10501C0080B202F0BEFDA06A002874D0A16C02F030
:10502C0011F8042257492046FFF70DFFA17A0139E8
:10503C00C9B22046FFF7A0FE534904222046FFF7D1
:10504C0002FF94F93130012B0CBF102114212046A2
:10505C00FFF792FE04224D492046FFF7F4FEA368A9
:10506C004B4A93425CD14B4904222046FFF7EBFE9E
:10507C00D9212046FFF780FE94F93130012B0CBF6B
:10508C002221F1212046FFF777FE204642490622D5
:10509C00FFF7D9FEA06A002863D0E16C01F0D2FFC3
:1050AC0001206BE76DB28EE794F93500012180B2D7
:1050BC0002F05EFD94F93600012180B202F058FD39
:1050CC0094F93600012180B202F063FD656A3DB1AE
:1050DC00B8F1000F3FF47EAF284602F0E9F979E70A
:1050EC0094F93300012180B202F042FD94F93400AE
:1050FC00012180B202F03CFD94F93400294680B2C3
:10510C0002F047FD66E7606A18B104F1380102F05D
:10511C00F9F994F93600002180B202F03AFD80E7EB
:10512C001E4A93420ED11E4903222046FFF78BFEE6
:10513C0094F93130012B0CBF9F21CF212046FFF772
:10514C001BFE95E7174A934292D11749032220463A
:10515C00FFF779FE94F93130012B0CBF1021AF21F0
:10516C00ECE794F93600012180B202F012FD606A7E
:10517C00002895D002F0ADF992E700BF18890D0018
:10518C0058860D00608B0D00648B0D00688B0D0034
:10519C0080002000728B0D006C8B0D008000400095
:1051AC00768B0D0060001000798B0D0070B5002A15
:1051BC00BDF810503DDBB0F90A40944239DD0029AE
:1051CC00BEBF5B181BB20021B0F90840CE18A64236
:1051DC00C4BF631A1BB2002B2BDDC06AD61014FBA4
:1051EC000611014402F0070001228240012DD2B2C7
:1051FC0016D0022D0BD0E5B9D243D2B20B44994252
:10520C0017D011F8010B104001F8010CF7E70B4413
:10521C0099420ED011F8010B504001F8010CF7E740
:10522C000B44994205D011F8010B104301F8010C05
:10523C00F7E770BDF0B50029BDF8146076DBB0F966
:10524C000850A94272DA002ABCBFD21813B2B0F9C6
:10525C000A40B8BF0022D718A742C4BFA31A1BB27A
:10526C00002B63DDC2F3C404C76A15FB041112F0F2
:10527C000702DBB207EB010423D0C2F10802D2B261
:10528C002C4D93423CBF4FF0FF0CA2EB030EAD5CD8
:10529C003CBF4CFA0EFC0CEA0505012E07D0022E81
:1052AC002ED04EB917F801C02CEA050503E017F80B
:1052BC0001C045EA0C057D54934237D3B0F9081070
:1052CC000C449A1AD2B2072A0ED9022E1DD11346BB
:1052DC002178C9432170083BB0F90810DBB2072BC9
:1052EC000C44F5D802F0070202B3134B012E9B5C61
:1052FC0019D0022E1BD0CEB9227822EA030314E077
:10530C0017F801C085EA0C05D5E7002E14BFFF2560
:10531C00002513462570083BB0F90810DBB2072BAB
:10532C000C44F7D8DEE7227813432370F0BD2278C3
:10533C005340FAE7508B0D00588B0D0070B4144697
:10534C00827EBDF80C60022A0DD0032A18D0012AE7
:10535C0011D10289E443144424B203960A4621462F
:10536C0070BCFFF767BF42890589E44319441444B4
:10537C00691A24B209B20396224670BCFFF716BF15
:10538C0045891944691A09B2E7E730B41446827E9C
:10539C00BDF80850022A0DD0032A18D0012A11D1C9
:1053AC00E2180489A41A24B202950A46214630BC9C
:1053BC00FFF7FCBE0289C9431144E2184489A41AC0
:1053CC0009B224B20295224630BCFFF733BF4289A2
:1053DC00C943114409B2E7E72DE9F8430446806A52
:1053EC00002842D0A16C01F02DFE47490522204631
:1053FC00FFF729FD217A01392046C9B2FFF7BCFC21
:10540C00B4F90A30DE1D48BF03F10E06D4E90A05D3
:10541C002389F61013FB06F615FA86F600283AD007
:10542C0094F9301001F01CFEA06A036840219B68BF
:10543C0098470127B542A06A24D01F2F0CD901F040
:10544C0016FE94F93010A06A01F00AFEA06A0368F7
:10545C0040219B6898470127A06A15F8011B036837
:10546C0001379B689847FFB2E4E7606A18B104F112
:10547C00380102F047F894F93600002180B202F0AE
:10548C0088FBB2E701F0F3FDA06A78B3E16CBDE8EC
:10549C00F84301F0D7BD94F93500012180B202F038
:1054AC0078FBB542F0D0606A15F8019B18B14946FB
:1054BC0002F096F8F5E708274FF0800894F93300CE
:1054CC0009EA080180B202F064FB94F9340001216E
:1054DC0080B202F05EFB94F93400002180B202F03D
:1054EC0058FB013F4FEA5808E8D1DAE794F9360047
:1054FC00012180B202F04DFB606A18B1BDE8F8439F
:10550C0001F0E7BFBDE8F8837C8B0D0000210A2277
:10551C00C0E900127047002310B50446C1718371B5
:10552C0088B202F04FFB08B10323A37100F046F9D7
:10553C00206010BD38B50C4605461146A0B202F0ED
:10554C0017FB21462846BDE83840FFF7E4BF0000B2
:10555C0010B5064B03600446006D08B100F0F6F878
:10556C002046FFF755FB204610BD00BF8C8B0D006D
:10557C0010B50446FFF7ECFF2046702102F07BFBD0
:10558C00204610BD30B585B004460D4602F046FBF2
:10559C00104A1149CDE901214FF0FF328021034619
:1055AC00009220462022FFF7B9FB0C4B236000230E
:1055BC00C4E9143504F15800FFF7A8FF04F16000AA
:1055CC00FFF7A4FF04F16800FFF7A0FF204605B029
:1055DC0030BD00BF801A0600A08601008C8B0D0028
:1055EC0013B50446503000F0A9F8636DD90705D502
:1055FC000222042104F15800FFF79CFF636D9A0707
:10560C0005D50022032104F16000FFF793FF636DC1
:10561C005B0705D50222114604F16800FFF78AFFEB
:10562C00012300933C2202212046FFF777FC02B0B5
:10563C0010BD000008B5024B1B689B68019308BDA8
:10564C007802030008B5024B1B681B6D019308BD63
:10565C007802030008B5024B1B689B6D019308BDD3
:10566C007802030008B5024B1B681B6E019308BD42
:10567C007802030008B5034B1B68D3F898300193EC
:10568C0008BD00007802030008B5034B1B68D3F873
:10569C00A830019308BD00007802030008B5034B45
:1056AC001B68D3F8B430019308BD000078020300E6
:1056BC0008B5034B1B68D3F8D830019308BD000024
:1056CC007802030008B5034B1B68D3F8DC30019358
:1056DC0008BD00007802030008B5034B1B68D3F823
:1056EC00E830019308BD00007802030008B5034BB5
:1056FC001B68D3F8EC30019308BD0000780203005E
:10570C0008B5034B1B68D3F8F030019308BD0000BB
:10571C007802030008B5034B1B68D3F800310193E2
:10572C0008BD00007802030008B5034B1B68D3F8D2
:10573C000431019308BD00007802030008B5024B48
:10574C001B681B6B019308BD4802030008B5024B94
:10575C001B685B6B019308BD4802030008B5024B44
:10576C001B685B6C019308BD4802030008B5024B33
:10577C001B689B6C019308BD4802030008B5024BE3
:10578C001B68DB6C019308BD4802030008B5024B93
:10579C001B685B6D019308BD4802030008B5024B02
:1057AC001B685B68019308BD1802030008B5024B27
:1057BC001B68DB68019308BD1802030008B5024B97
:1057CC001B685B69019308BD1802030008B5024B06
:1057DC001B689B68019308BD2C02030008B5024BA3
:1057EC001B68DB68019308BD2C02030008B5024B53
:1057FC001B681B69019308BD2C02030008B5024B02
:10580C001B685B69019308BD2C02030008B5024BB1
:10581C001B681B68019308BD2802030008B5024BE6
:10582C001B68DB68019308BD2802030008B5024B16
:10583C001B689B69019308BD2802030008B5024B45
:10584C001B68DB69019308BD2802030008B5024BF5
:10585C001B681B6A019308BD2802030008B5024BA4
:10586C001B685B6A019308BD2802030008B5024B54
:10587C001B689B6A019308BD2802030008B5024B04
:10588C001B68DB6A019308BD2802030008B5024BB4
:10589C001B681B6B019308BD2802030008B5024B63
:1058AC001B685B6B019308BD2802030008B5024B13
:1058BC001B681B6C019308BD2802030008B5024B42
:1058CC001B685B69019308BD6402030008B5024BB9
:1058DC001B689B68019308BD6802030008B5024B66
:1058EC001B68DB68019308BD6802030008B5024B16
:1058FC001B681B68019308BD3002030008B5024BFE
:10590C001B685B69019308BD3002030008B5024BAC
:10591C001B68DB69019308BD3002030008B5024B1C
:10592C001B681B6A019308BD3002030008B5024BCB
:10593C001B685B6A019308BD3002030008B5024B7B
:10594C001B68DB6B019308BD3002030008B5024BEA
:10595C001B681B6C019308BD3002030008B5024B99
:10596C001B685B6C019308BD3002030008B5024B49
:10597C001B681B68019308BD3C02030008B5024B71
:10598C001B68DB68019308BD3C02030008B5024BA1
:10599C001B681B69019308BD3C02030008B5024B50
:1059AC001B685B69019308BD3C02030008B5024B00
:1059BC001B689B69019308BD3C02030008B5024BB0
:1059CC001B68DB69019308BD3C02030008B5024B60
:1059DC001B681B6A019308BD3C02030008B5024B0F
:1059EC001B689B6A019308BD3C02030008B5024B7F
:1059FC001B681B68019308BD4C02030008B5024BE1
:105A0C001B681B69019308BD4C02030008B5024BCF
:105A1C001B685B69019308BD4C02030008B5024B7F
:105A2C001B689B69019308BD4C02030008B5024B2F
:105A3C001B68DB69019308BD4C02030008B5024BDF
:105A4C001B681B6A019308BD4C02030008B5024B8E
:105A5C001B685B68019308BD6002030008B5024B2C
:105A6C001B689B68019308BD6002030008B5024BDC
:105A7C001B68DB68019308BD6002030008B5024B8C
:105A8C001B681B69019308BD6002030008B5024B3B
:105A9C001B689B69019308BD6002030008B5024BAB
:105AAC001B68DB69019308BD6002030008B5024B5B
:105ABC001B685B6B019308BD6002030008B5024BC9
:105ACC001B681B6D019308BD6002030008B5024BF7
:105ADC001B685B68019308BD2002030008B5024BEC
:105AEC001B685B69019308BD2002030008B5024BDB
:105AFC001B68DB6A019308BD2002030008B5034B49
:105B0C001B68D3F88830019308BD00002002030005
:105B1C0008B5034B1B68D3F89430019308BD000003
:105B2C002002030008B5024B1B68DB6B019308BD18
:105B3C004402030008B5024B1B685B68019308BD67
:105B4C004002030008B5024B1B689B68019308BD1B
:105B5C004002030008B5024B1B68DB68019308BDCB
:105B6C004002030008B5024B1B681B69019308BD7A
:105B7C004002030008B5024B1B685B69019308BD2A
:105B8C004002030008B5024B1B689B69019308BDDA
:105B9C004002030008B5024B1B68DB69019308BD8A
:105BAC004002030008B5024B1B681B6A019308BD39
:105BBC004002030008B5024B1B681B6B019308BD28
:105BCC004002030008B5024B1B685B6B019308BDD8
:105BDC004002030008B5024B1B681B6C019308BD07
:105BEC004002030008B5024B1B685B6C019308BDB7
:105BFC004002030008B5024B1B681B68019308BDEB
:105C0C001C02030008B5024B1B685B68019308BDBE
:105C1C001C02030008B5024B1B689B68019308BD6E
:105C2C001C02030008B5024B1B685B6A019308BD9C
:105C3C001C02030008B5024B1B68DB6A019308BD0C
:105C4C001C02030008B5024B1B685B6C019308BD7A
:105C5C001C0203000021FFF741BF704770477047DB
:105C6C0070470000064B994210B500F10C0405D0AA
:105C7C00084602F007F8002808BF0024204610BD93
:105C8C00248D0D00064B994210B500F10C0405D083
:105C9C00084601F0F7FF002808BF0024204610BD7D
:105CAC00248D0D00064B994210B500F10C0405D063
:105CBC00084601F0E7FF002808BF0024204610BD6D
:105CCC00248D0D0010B56821044601F0D4FF204648
:105CDC0010BD10B52821044601F0CDFF204610BDA3
:105CEC0010B53021044601F0C6FF204610BDFEF76A
:105CFC00CEB9FEF7CCB9FEF7CAB910B503680446A5
:105D0C009B689847A368013BA3602BB92368204686
:105D1C00DB68BDE81040184710BD10B5044600689C
:105D2C0008B1FFF723FD204610BD000010B5044B51
:105D3C0004461868FFF722FD0123237010BD00BF35
:105D4C004CE6032010B5044B04461868FFF71EFD03
:105D5C000023237010BD00BF4CE60320F0B50025D6
:105D6C00EC1C8C420DD86E1C445D875D974205D1AE
:105D7C002644B14205D31D60601CF0BD013425449E
:105D8C00EEE70020F9E72DE9F34704469DF828706B
:105D9C001E46894601AB90460A46016AFFF7DEFFB4
:105DAC00256AB31C17BB08B35F193F1A1F2F19D8EC
:105DBC00DDF8049009F1020AA5EB0902121A00EBB6
:105DCC00090106EB0A0092B22144204402F096F835
:105DDC00731C04F809303246414604EB0A0002F009
:105DEC007FF82762206A02B0BDE8F0872B441F2B96
:105DFC00F8D8731C6355A81C25442062324685F8DC
:105E0C0001904146204402F06BF8236A334423622C
:105E1C00E8E70000024A00210A20FFF747BE00BF56
:105E2C00B9570D00022A38B5044607D0032A11D001
:105E3C00012A01D10B682360002038BD08200D68B1
:105E4C00FEF721F903460028F5D095E8030083E816
:105E5C000300F0E700680028EED0082101F00BFFEA
:105E6C00EAE730B40D4611461A46036809682868FB
:105E7C00D3E90043A44630BC604710B583680446A0
:105E8C0013B1032201469847204610BD10B50446B5
:105E9C005830FFF7F2FF04F14800BDE8104001F064
:105EAC00A5BBA0F13003DAB2092A01D81846704715
:105EBC00A0F16103052B01D857387047A0F14103BD
:105ECC00052B94BF37384FF0FF30704710B50023C7
:105EDC0004460370FFF72AFF204610BD10B5037867
:105EEC0004460BB1FFF72EFF204610BD82B00346CF
:105EFC00086849686A4603C26A4603CA18601846AD
:105F0C00596002B0704708B582798B799A4206D1F4
:105F1C00062201F0D7FFB0FA80F0400908BD00203E
:105F2C00FCE74FF0FF3303608380002070470021B3
:105F3C0008B5016041600246FFF7F3FF917110460E
:105F4C0008BD000001220261064A11680160516817
:105F5C0041601189927A827200220181C0F80B2073
:105F6C00C27370472C8D0D0010B50B69036101F1E4
:105F7C001002034651F8044B43F8044B9142F9D1FB
:105F8C0010BD10B50B460446B1B1012A01F1100247
:105F9C000AD1014653F8040B41F8040B9342F9D192
:105FAC0001232361204610BD411E12F8010D01F89A
:105FBC00010F9A42F9D1F3E7102201F0B9FFF1E792
:105FCC0038B5044615461A46FFF7DBFFA581204677
:105FDC0038BD000008B5026922B98089003818BFA5
:105FEC00012008BD0249102201F06CFFF6E700BF4A
:105FFC004C8D0D000069704738B50C4614220021F9
:10600C00054601F095FF23693BB9627B2B74237B1A
:10601C0043EA02232B80284638BD01232B7404F15C
:10602C0010022B4654F8041B43F8041B9442F9D17C
:10603C00F1E7427B007B40EA02207047704708B5CD
:10604C0002690B699A4206D1102201F03BFFB0FAAB
:10605C0080F0400908BD0020FCE7000001232DE979
:10606C00F3410361324B1A6802605A6842600025A2
:10607C001A899B7A028104468372C0F80B50C5734F
:10608C000E4621B32421304601F0A3FF042821D170
:10609C00ADF8045001AFB51C063615F8020CFFF72D
:1060AC0000FFB0F1000810DB15F8010CFFF7F9FE4A
:1060BC0000280ADB023540EA0810AE4207F8010B53
:1060CC00EBD1BDF804305BBAA3810023236102B08D
:1060DC00BDE8F08110272421304601F07AFFA84258
:1060EC0006D827440023BC42F1D007F8013DFAE75B
:1060FC00002FECD0705DFFF7D4FE030615D4000121
:10610C00013F5FFA80F804F807802421304601F043
:10611C0060FF0135A84208D9705DFFF7C2FE40B29E
:10612C000028A4BF40EA0800E0550135D3E700BFC2
:10613C002C8D0D0013B504460191FFF703FF20468B
:10614C000199FFF78BFF204602B010BD30B49DF8CB
:10615C00085012B9006A30BC7047029530BCFFF78A
:10616C0012BE1FB50446024600F11F01002302F8BF
:10617C00013B9142FBD123620093062201238DF84F
:10618C000F2019460DF10F022046FFF7DFFF2046C6
:10619C0004B010BD73B50A460E4601AB016A044645
:1061AC00FFF7DCFD054678B10198226A4119121AF5
:1061BC002144521B204401F093FE206A401B2062B4
:1061CC0031462046FFF7E6FF02B070BD38B54FF6FA
:1061DC00FF730025044643800E2229460570057185
:1061EC00063001F0A5FE04F11400FFF7ABFE04F13C
:1061FC002800FFF7A7FE044904F13C0001F041FA26
:10620C006565204638BD00BF08860D0010B5D0E985
:10621C00063203EBC2029342184606D00468248867
:10622C008C4203F10803F6D110BD0020FCE70000FE
:10623C00F0B5064685B01F460D46002950D0002A01
:10624C004ED004682378F42A28BFF42243B3237970
:10625C00980709D5A08903920023FFF71FFA00289D
:10626C00039A03DA05B0F0BD6FF077003468237938
:10627C00D90609D5012F07D0A0890023294605B0DE
:10628C00BDE8F040FFF746BA9B06EBD5022FE9D0EC
:10629C00A0890023294605B0BDE8F040FFF744BAB9
:1062AC0060884FF6FF7188421CD021794E0701D5CA
:1062BC00012F04D10B0709D46FF07700D2E7A18925
:1062CC00009313462A46FFF7FDF9CBE7022FF3D0D4
:1062DC000023A189009313462A46FFF7E9F9C1E789
:1062EC000248BFE76FF0D100BCE700BFF2FEFFFF32
:1062FC002DE9F04100260660074628200C46FDF7E4
:10630C00C2FE051E05F10C080FD00123C5E90133AF
:10631C00084B2B604046FFF715FE0FCC2E6285F81C
:10632C00246046460FC623683360C7E900853846AB
:10633C00BDE8F081F48C0D0070B5002505600646B3
:10634C003020FDF7A0FE044688B10123C0E90133DB
:10635C00094B03604FF6FF7383810E30FFF7E7FDA7
:10636C00C4E90655C4E90855C4E90A55A575746015
:10637C000C343460304670BD108D0D0037B50D46B1
:10638C00044601A8FFF7A2FD2A6852F8023F2360D9
:10639C005368636001A8FFF7A1FD204603B030BD30
:1063AC0030B5054687B00C4601A8FFF78FFD2A686B
:1063BC00236812881B889A420DD1294602A8FFF740
:1063CC00DDFF214604A8FFF7D9FF04A902A8FFF7B7
:1063DC009AFD044600B9002401A8FFF77FFD204672
:1063EC0007B030BD10B504465420FDF74CFE0146F5
:1063FC0060B10023C0E90033C0E90233C0E90433C3
:10640C00C0E906330362C362C363C364216019B974
:10641C00094A0A20FFF74AFB0020FFF70BF920B1CD
:10642C00054A00210A20FFF741FB2168034800229E
:10643C00FFF766F9204610BDB9570D0059680D00DD
:10644C0010B50B4C2378BFF35B8FDB070ED42046C3
:10645C00FDF72AFE50B10748FFF7C4FF2046FDF7B1
:10646C0028FE054A0549034801F000FC014810BD0F
:10647C0044E6032050E603206CE5032061660D0022
:10648C0030B50368093B012B8DB004460D4611D87D
:10649C00FFF7D6FFA1880068FFF7B8FE034658B98E
:1064AC002022CDE904200B4A00920B4904AA322089
:1064BC00FFF704FB0DB030BD6A6D002AFAD0D4E9A9
:1064CC00032105F14C00CDE90312AC6D04AA03A91C
:1064DC00A047EFE7038C0D00DC8B0D0008B5002006
:1064EC00FFF7A8F800EAE07008BD084611B90A46A3
:1064FC00FFF7A8B8096A0022FAE707B5084629B9D8
:10650C000A4603B05DF804EBFFF7A4B80121019033
:10651C00FFF740FE01980022016AF2E738B5044605
:10652C001546FFF7E2FF00280ADB29462046FFF755
:10653C00E4FF002804DBBDE838400020FFF792B8E8
:10654C0038BD0368D8690028D4BF002001207047EB
:10655C0038B500230446836008200D46FDF793FDF3
:10656C0018B12B6803606B684360034BE360034B0B
:10657C002060A360204638BD6F5E0D00315E0D00BB
:10658C000B68036013B15A6801325A60704710B53A
:10659C0051F8043B044640F8043BFFF7F1FF236835
:1065AC000BB9FFF737FC204610BD10B551F8043B72
:1065BC00044640F8043BFFF7E3FF204610BD10B53E
:1065CC0051F8043B044640F8043BFFF7D9FF204642
:1065DC0010BD10B50446006828B14368013B436008
:1065EC000BB9FFF78AFB204610BD10B504460430EA
:1065FC00FFF7EFFF204610BD70B5D0E900530446FD
:10660C0005EBC306AE4204D0281DFFF7E2FF0835A8
:10661C00F8E72068FFF7F6FA204670BD70B5D0E9B0
:10662C000053044605EBC306AE4204D0281DFFF709
:10663C00D0FF0835F8E72068FFF7E4FA204670BD74
:10664C0010B504462430FFF7E9FF04F11800FFF7FA
:10665C00D3FF10BDF8B50468064624B304F144001A
:10666C00FFF70BFC04F13400FFF707FC04F12400E6
:10667C00FFF703FCD4E9065305EBC307AF4204D084
:10668C00281DFFF7A6FF0835F8E7A069FFF7BAFA4F
:10669C0004F10C00FFF7C2FF2046FFF7ADFF5421B9
:1066AC00204601F0E8FA3046F8BD826810B50AB908
:1066BC0001F0E5FABDE81040C36818478842F8B508
:1066CC0004460D46164614D9904213D2A2F1080680
:1066DC00751AA1F108072C44B74218D01CB13146E9
:1066EC002046FFF76CFF301DFFF773FF083E083C98
:1066FC00F2E70CD0B5420AD01CB129462046FFF770
:10670C005EFF281DFFF765FF08350834F2E7F8BD7A
:10671C002DE9F041D0E900430546884604EBC30758
:10672C00A74203D100263046BDE8F0814146204601
:10673C00FFF736FE064608B90834F1E7002CF1D015
:10674C00201DFFF746FFD5E9003204F1080103EBE9
:10675C00C2022046FFF7B2FF6B68013B6B60E2E7B9
:10676C00F0B507468BB06846FFF7B0FB3B68D3E942
:10677C00064504EBC505AC422BD02422002101A810
:10678C0001F0D6FB23680022188801A9FEF7A4FFAC
:10679C00064608B10834EEE79DF80830012BF9D114
:1067AC006846FFF7CFFA236831461888FEF762FF78
:1067BC00051E08DB6846FFF7B9FA38682146183021
:1067CC00FFF7A6FF35466846FFF788FB28460BB057
:1067DC00F0BD6FF0A905F6E7F7B5044646686846C4
:1067EC00FFF7EDFED4E901739F4212DB0137002F56
:1067FC0029DDF800FFF7FEF90546F0B1D4E90012E7
:10680C0001EBC202FFF75AFF2068FFF7FBF9256086
:10681C00A7602368626803EBC60603EBC20231462D
:10682C0006F10800FFF74AFF1EB169463046FFF734
:10683C00C6FE636801336360012501A8FFF7C9FE3A
:10684C00284603B0F0BD0025DEE700002DE9F0413D
:10685C0005468EB003A80C46FFF738FB2E68042EB5
:10686C006BD007D8032E28D003A8FFF737FB0EB048
:10687C00BDE8F081A6F10C03032BF5D8A9892046BD
:10688C00FFF7C4FC07460028EED0E36C002BEBD0DE
:10689C001022002107A801F04BFB0D2E06978DF856
:1068AC001C6040F092806B68099306230893236D5B
:1068BC0006A904F144009847D6E704A8FFF73CFD6D
:1068CC00049BAA891A806968049808310230FFF782
:1068DC000DFB04A906A8FFF772FE06A904F1180027
:1068EC00FFF77AFF054607A8FFF773FE20230693F0
:1068FC008DB93E4B3E49009332202B4606AA079594
:10690C00FFF7DCF8049B29461888FEF7B3FE05A8B0
:10691C00FFF75FFEA8E7374A00920023344907933C
:10692C0006AA0120FFF7CAF8E36A002BEFD004A9EE
:10693C0004F12400FFF7B9FEE9E7A9892046FFF727
:10694C0065FC064600288FD00568D5E906314FF660
:10695C00FF722A8003EBC101994203D053F8080B54
:10696C004280F9E7D5E9037307EBC308B84504D0B7
:10697C00381DFFF72EFE0837F8E700232B61D5E909
:10698C00067307EBC308B84504D0381DFFF721FE8A
:10699C000837F8E70023EB61AB72E36B23B13146A8
:1069AC0004F13400FFF781FE00232022CDE90623F9
:1069BC00114A00920E4906AA0120FFF77FF83146D2
:1069CC0004F11800FFF7A4FE4EE70F2E7FF46FAF13
:1069DC006B6809932B7A03F00102C3F340038DF823
:1069EC0029308DF82820082360E700BF1B8C0D0090
:1069FC00DC8B0D00418C0D005E8C0D0013B500235B
:106A0C000446D1E90002C1E90033236800932060F9
:106A1C006368626001A80193FFF7DBFD204602B0BA
:106A2C0010BD13B50B460246D0E900016C4684E854
:106A3C00030093E8030082E8030094E8030083E872
:106A4C00030002B010BD38B505460C46FFF7E9FF50
:106A5C00AB68A268AA60A360EB68E268EA60E360D6
:106A6C0038BD1FB500230446084669460293FFF75C
:106A7C00EAFF21466846FFF7E6FF6846FFF7FDF997
:106A8C00204604B010BD70B50E4688B00446019285
:106A9C001D46FFF79BFB33780199237104F13C00F1
:106AAC0000F003FE04F14C0685B10C9B029502A983
:106ABC0004A80393FFF74CFD04A93046FFF7D1FF60
:106ACC0004A8FFF7DAF9204608B070BD0695F3E785
:106ADC002DE9F04786B007461D46682000238946FD
:106AEC0092460493FDF7CFFA061E06F10C081DD052
:106AFC0001233446C6E90133154B44F8203B9AF880
:106B0C0000308DF80C30109B00934A460F9B03A964
:106B1C004046FFF7B8FF0FCD0FC42B680E9D2360C6
:106B2C000FCD06F134040FC42B68236004A938463A
:106B3C00CDE90486FFF762FF05A8FFF74AFD396827
:106B4C0019B9044A0A20FEF7B1FF06B0BDE8F08778
:106B5C00D88C0D00B9570D008842F8B504460D4687
:106B6C00164614D9904213D2A2F10806751AA1F157
:106B7C0008072C44B74218D01CB131462046FFF709
:106B8C0014FD301DFFF725FD083E083CF2E70CD044
:106B9C00B5420AD01CB129462046FFF706FD281D38
:106BAC00FFF717FD08350834F2E7F8BD70B50E1E77
:106BBC00054611DDF000FFF71DF8044658B1D5E984
:106BCC00001201EBC202FFF7C7FF2868FFF71AF8A3
:106BDC002C60AE60012070BD0024F6E773B504464E
:106BEC0045686846FFF7E1FCD4E90113994210DAD5
:106BFC002368626803EBC50503EBC202294605F165
:106C0C000800FFF7A9FF8DB96368013363600126A3
:106C1C0006E001312046FFF7C9FF06460028E7D100
:106C2C0001A8FFF7D6FC304602B070BD6946284675
:106C3C00FFF7BBFCE8E78842F8B504460D4616465C
:106C4C0014D9904213D2A2F10806751AA1F10807C3
:106C5C002C44B74218D01CB131462046FFF797FCA4
:106C6C00301DFFF7B6FC083E083CF2E70CD0B542ED
:106C7C000AD01CB129462046FFF789FC281DFFF7D6
:106C8C00A8FC08350834F2E7F8BD70B50E1E0546B1
:106C9C0011DDF000FEF7AEFF044658B1D5E9001245
:106CAC0001EBC202FFF7C7FF2868FEF7ABFF2C60B1
:106CBC00AE60012070BD0024F6E773B5044645684C
:106CCC006846FFF764FCD4E90113994210DA236893
:106CDC00626803EBC50503EBC202294605F1080007
:106CEC00FFF7A9FF8DB9636801336360012606E0E5
:106CFC0001312046FFF7C9FF06460028E7D101A85D
:106D0C00FFF767FC304602B070BD69462846FFF7B6
:106D1C003EFCE8E72DE9F04F1746A1B080460AA8E3
:106D2C000E46FFF7D3F83C68237953B939464046F1
:106D3C00FFF72DFC0AA8FFF7D1F8404621B0BDE8BB
:106D4C00F08F3368D3E9035305EBC303039304F1CA
:106D5C00280A04F1140B039B9D4221D0D5F8009016
:106D6C00584609F11401FFF76AF9B8B109F1280185
:106D7C005046FFF764F988B12368D9F800205340D6
:106D8C0033F47F430AD12022CDE915235E4A0092C9
:106D9C0015AA5E493220FEF791FEC7E70835DAE7FF
:106DAC005046FFF717F960B95949012215A815ADDE
:106DBC00FFF7E7F80FCDD446ACE80F002B68CCF802
:106DCC0000303368D3E9005305EBC30B5D45A9468E
:106DDC0051466ED055F8080BFFF731F90028F5D065
:106DEC0004F1140A5046FFF7F5F888B9494B4849A5
:106DFC001A88013292B21A8015A8012315ADFFF73B
:106E0C00DFF80FCDD446ACE80F002B68CCF800307F
:106E1C002822002116A801F08BF83F4B1593514600
:106E2C0004A8FFF7E9F804AB18AA0DF1200C1868B8
:106E3C005968154603C5083363452A46F7D11868C7
:106E4C00286023798DF85830D9F800309B8AADF83A
:106E5C007430E36B1793314B0022A11D15A8CDE9BB
:106E6C001E34FEF743FC00287FF460AF012323702F
:106E7C00346839460C340DA8FFF789FB20460DA960
:106E8C00FFF71BFF04460EA8FFF7A3FB002C7FF4B3
:106E9C004DAF2023CDE90D34214B00930DAA234691
:106EAC0077E739464046FFF772FB0CA8FFF791FBDA
:106EBC0040E70BA8FFF71CFA514615A8FFF79CF802
:106ECC000B9A0023143215A90120FEF7DDFB0028D4
:106EDC00E7D135680BA90DA8FFF767FB28460DA96C
:106EEC00FFF77CFE05460EA8FFF773FB002DD8D0EC
:106EFC0032685368126803F10053013B0CA802EB93
:106F0C00C309FFF766FB6BE77D8C0D00DC8B0D0076
:106F1C003C8D0D0048E6032001002C008D640D0013
:106F2C00A88C0D0010B5064C002320462360FEF7FC
:106F3C0015FC2046034A0449BDE8104000F096BEFB
:106F4C004CE603206CE50320275D0D000022406811
:106F5C001146FEF727BE002240681146FEF732BEEE
:106F6C0040680022FEF726BE4068002281F0010135
:106F7C00FEF710BE002340681A461946FEF702BE03
:106F8C00002340681A461946FEF7F4BD00224068FB
:106F9C001146FEF7E7BD002240681146FEF7D2BD50
:106FAC00406800220221FEF7D5BD002340681A4636
:106FBC00FEF7C0BD024B03225A60024A1A607047AA
:106FCC0054E60320648D0D007047F8B5064615464F
:106FDC000C468F18BC4206D0336814F8011B9B6812
:106FEC0030469847F6E72846F8BD007C0022FEF7AD
:106FFC002DBC007C0021FEF731BC007C0021FEF78B
:10700C0035BC007C0021FEF739BC007C0021FEF76A
:10701C003DBC10B51421044600F02DFE204610BDD9
:10702C0010B54FF47A73044608460021C4E90113E5
:10703C00034B236020741146FEF738FC204610BD2C
:10704C00A08D0D00007C0022FEF7E0BB0023007C2D
:10705C001A461946FEF7E2BB007C0022FEF7E6BB9F
:10706C00C9B2FFF7F9BF007C0022FEF7E7BB012194
:10707C00FFF7F9BF704710B51821044600F0FBFD6F
:10708C00204610BDF0B5037D062B8DB00E4600F1E9
:10709C0004074FF0000412D000F1080515F8011D8B
:1070AC000A22304600F05FF9AF42044419D0002C9C
:1070BC00F4D02E21304600F03DF90444EEE72F23A6
:1070CC006A4639460A208DF80040FEF7F7FB684601
:1070DC0000F064FF33680246DB6869463046984727
:1070EC00044620460DB0F0BD10B5054B04461122E8
:1070FC0040F8043B002100F01BFF204610BD00BFF0
:10710C00C88D0D000346074A10B543F8042B01F156
:10711C00100251F8044B43F8044B9142F9D10A7810
:10712C001A7010BDC88D0D0010B59DF8084044EACA
:10713C00032343EA024242EA0161042341600375DE
:10714C0010BD000013B5054B0360CB7800938B7812
:10715C004A780978FFF7E8FF02B010BDC88D0D0022
:10716C00014B024A1A6070475CE60320D48D0D0077
:10717C00002340681A46FEF7DDBC4068002202215D
:10718C00FEF7E8BC002240681146FEF7DBBC00228B
:10719C0040681146FEF7E6BC002340681A461946C3
:1071AC00FEF7E8BC002340681A461946FEF7EABC15
:1071BC0040680021FEF70EBD40680021FEF712BDAD
:1071CC004068002281F00101FEF7E4BC4068002217
:1071DC00FEF7F0BC002240681146FEF7F3BC00221B
:1071EC0040681146FEF7DEBC2DE9F043002495B053
:1071FC0016460D460746FFF777FF214618220EA8C4
:10720C00009400F095FE4023CDE90C3421466B46EA
:10721C000CAA3046FEF762FB044600284CD102460D
:10722C0001216868FEF79EFC0221804622466868B0
:10723C00FEF798FC009E81462146002E3CD000298A
:10724C003AD17368022B03D00A2B11D0F669F4E7FC
:10725C00B8F1000F0AD0716906A8043107ADFFF729
:10726C0071FF0FCD3C1D0FC42B6823704146EDE719
:10727C00B9F1000F01D14946E8E77469102201A861
:10728C0000F056FE06238DF8143001AD04F108030E
:10729C001834186859682A4603C20833A3421546A5
:1072AC00F7D101A906A807ADFFF72CFF0FCD3C1DA8
:1072BC000FC42B682370DEE70098FEF707FB3846F7
:1072CC0015B0BDE8F0830000024B034A1A6000229F
:1072DC005A60704760E60320E08D0D00F8B5064655
:1072EC000D468F180024BD420CD0336815F8011BD5
:1072FC009B6830469847031E01DB1C44F3E7002CC7
:10730C0008BF1C462046F8BD13B50446084659B1C3
:10731C00019100F043FE23680199DB680246204688
:10732C0002B0BDE81040184702B010BD08B5FFF719
:10733C00EBFF08BD03689B68184738B50D2105465F
:10734C00FFF7F8FF0A2104462846FFF7F3FF204415
:10735C0038BD38B50546FFF7D7FF04462846FFF77A
:10736C00ECFF204438BD30B58BB000238DF82430B1
:10737C00012A98BF0A2209AC0D46B1FBF2F101FBC0
:10738C00125303F0FF03092B94BF30333733DBB2B6
:10739C00AA4204F8013DEFD92146FFF7B5FF0BB027
:1073AC0030BD2DE9F04186B000AF05460E46381DC4
:1073BC00142114463B60FEF735FC13280ED8391DFA
:1073CC002846FFF7A1FF04461EB12846FFF7B5FF7C
:1073DC00044420461837BD46BDE8F08100F108038F
:1073EC0023F00703E846ADEB030D2246411C3B6836
:1073FC006846FEF717FC69462846FFF785FF0446EA
:10740C00C546E1E710B50446FEF737FD204610BD32
:10741C0010B50446FEF73AFB844208D01CB1BDE817
:10742C001040FEF71BBBBDE81040FEF71FBB10BDA4
:10743C0070B505460E461446FEF728FB50B144EADB
:10744C00062040EA0540FEF701FBBDE87040E7204E
:10745C00FEF724BB70BD10B50C46FEF70FFBFEF714
:10746C0015FB28B124B1BDE81040E720FEF716BB90
:10747C0010BD00000348044A04490023836000F057
:10748C00F5BB00BF68E603206CE5032011740D000A
:10749C000021FEF75BBA0021FEF760BA10B5044676
:1074AC0008462170FEF732FA00236360204610BDB7
:1074BC0010B504460078FFF7EBFF48B920784FF67B
:1074CC00FF71FEF713FA2078BDE81040FFF7E3BF19
:1074DC0010BD0078FFF7DFBF400830B518600024FE
:1074EC0018688842E5B206D90134082C02D040084D
:1074FC001860F5E70725024B5B5D137030BD00BFCC
:10750C00148E0D002DE9F04306468FB000780C4622
:10751C00FFF7BEFF00281BDB35781422002109A8D9
:10752C0000F006FD0B23002209A92846ADF82430F3
:10753C00FEF7FCF99DF82D3013B19DF82C5055B188
:10754C000027B946B846012523795DB1C3B10020A7
:10755C000FB0BDE8F083DDF830809DF834909DF8D5
:10756C003570F1E7002B35D1A368434508D18DF870
:10757C0020908DF82170BDF82020A3899A42E6D086
:10758C000023A1688DF80F300A9804AB0DF10F029F
:10759C00FFF7A2FF217985B989B9A36843450ED3BA
:1075AC008DF820908DF82170BDF82020A3899A4287
:1075BC0005D1049B434502D1C9E70029F9D1002329
:1075CC000193637B00939DF80F20237B3078FEF7AB
:1075DC00B5F9BCE7CDE900552B462A460121F5E764
:1075EC0008B50078FEF78AF9C0B208BD10B504469C
:1075FC000068FEF707FB204610BD10B50446006876
:10760C0008B1FEF7FFFA0023C4E90133236010BD73
:10761C0038B504460D4600680131FEF7FBFA10B18F
:10762C00C4E90005012038BD10B50368044623B138
:10763C0043688B4201D3012010BD2046FFF7E8FFC1
:10764C000028F9D0A368002BF5D122681370F2E75B
:10765C0037B50D46114601920446FFF7E5FF019A36
:10766C0028B92046FFF7C9FF204603B030BDA26001
:10767C002946206800F034FC2268A3680021D1540C
:10768C00F2E7002313B5C0E90033044683600373AB
:10769C0041B10846019100F081FC01990246204657
:1076AC00FFF7D6FF204602B010BD13B5044659B102
:1076BC000846019100F072FC019902462046FFF742
:1076CC00C7FF204602B010BDFFF797FFF9E758B58A
:1076DC000E462AB121B18468A34202D300230B7059
:1076EC0058BDE41A013A0168944228BF1446194463
:1076FC002246304600F05AFC00233355F0E70000D8
:10770C0010B5094B094C022200201A60084B20606E
:10771C00A080A071A360FEF7D9F92046054A06495E
:10772C00BDE8104000F0A2BA84E6032078E60320FE
:10773C000000FFFF6CE5032025410D00024B1A6889
:10774C00024B1A60704700BF04E5032088E6032053
:10775C0070474174704708B5007CFEF73FF920EA8A
:10776C00E07008BD08B5007CFEF710F920EAE07067
:10777C0008BD08B5007CFEF719F940EAE07008BDB9
:10778C0008B5007CFEF70AF940EAE07008BD007C01
:10779C00FEF714B937B5457C04462DB1207C03B0F7
:1077AC00BDE83040FEF7EAB8007C0191FEF716F90F
:1077BC0000280199F2DC284603B030BD10B5142125
:1077CC00044600F058FA204610BD000010B54FF0EA
:1077DC00000C0446084611464FF47A72C4E901C203
:1077EC00044A22600122207462741A46FEF7BEF825
:1077FC00204610BD408E0D0013B50E4C2178BFF302
:10780C005B8F11F0010112D120460191FCF74CFC69
:10781C00019960B1084A094B0948FFF7D7FF204688
:10782C00FCF747FC074A0849054800F01FFA0448D2
:10783C0002B010BD8CE6032090E6032014E7032071
:10784C0098E703206CE503205D770D0041747047C9
:10785C00704708B50021007CFEF7E0F840EAE070C4
:10786C0008BD08B50121007CFEF7D8F840EAE070AD
:10787C0008BD08B5007CFEF7C9F820EAE07008BD29
:10788C0008B5007CFEF7BAF820EAE07008BD13B525
:10789C000446007C0191FEF7B9F80028019901DC3F
:1078AC00607C20B1207CFEF7C1F820EAE07002B0C9
:1078BC0010BD007CFEF7C2B810B51421044600F0D0
:1078CC00DAF9204610BD000010B54FF47A73044667
:1078DC0008460021C4E90113044B236001232074E2
:1078EC0063741146FEF782F8204610BD708E0D00B1
:1078FC0010B514220446002100F01AFB204610BDDE
:10790C0010B5104C88B003A8FFF7F2FF2178BFF335
:10791C005B8F11F0010111D120460191FCF7C4FBE2
:10792C00019958B103AA0848FFF7CEFF2046FCF78F
:10793C00C0FB064A0649044800F098F9024808B012
:10794C0010BD00BFACE70320B0E703206CE50320BB
:10795C005D780D00002240681146FEF703B9002245
:10796C0040681146FEF71EB9002240681146FEF72A
:10797C0029B940680022FEF71DB94068002281F049
:10798C000101FEF707B9002340681A461946FEF7B5
:10799C00F9B8002340681A461946FEF7EBB80022E6
:1079AC0040681146FEF7CEB8406800220221FEF76F
:1079BC00D1B8002340681A46FEF7BCB8024B04222B
:1079CC005A60024A1A607047C4E70320A08E0D006B
:1079DC00014B1860704700BF08E5032008B50B4B3E
:1079EC0043B1FFF78DFF03681B699847002801DD41
:1079FC00AFF30080064B43B1FFF7FEFE03681B6933
:107A0C009847002801DDAFF3008008BD000000009E
:107A1C000000000008B5FFF7E1FFFDF7CFFE014BBA
:107A2C00186008BDD4E703200248034A0349121A20
:107A3C0000F056BA00F4032004F40320F08F0D007C
:107A4C0007B5002300931A466FF07701FEF760F834
:107A5C0003B05DF804FB000007B543880A2B08D07F
:107A6C00502B0BD1094B1B684BB103B05DF804EBE9
:107A7C001847FFF7E5FF03B05DF804FB0023009304
:107A8C001A466FF07701FEF743F8F4E7D0E70320CE
:107A9C0038B5124C1248134D0021FEF7D3F8236869
:107AAC00AB42114B0CBF012200221A7002D0FFF71F
:107ABC00BBFF2560FDF772FE044600F041FA0B4B4C
:107ACC0013B12046AFF3008000210848FEF72AF8D6
:107ADC00BDE8384006480021FEF710B800F403203A
:107AEC00DD790D001E1C279ACCE703200000000056
:107AFC00657A0D00232813B502D9002002B010BD01
:107B0C00A0F10B03022B1AD8174C2178BFF35B8F13
:107B1C0011F001010BD120460191FCF7C5FA019936
:107B2C0028B11248FFF7BAFC2046FCF7C2FA0F4BFB
:107B3C001878FDF7F3FE0028DFD10120DEE70128DD
:107B4C0009D800F06BF80021007CFDF7A7FE80F04F
:107B5C000100C0B2D2E709380128EED8FFF74CFE7D
:107B6C00007CFDF733FFF2E738E603203CE6032008
:107B7C00232838B504460D460AD8FF2908D0FFF74C
:107B8C00B9FF28B129462046BDE83840FDF71EBE96
:107B9C0038BD38B504460D46FDF720FEFF2810D041
:107BAC00062804D84D2323FA00F0C30709D4204635
:107BBC00FFF7A0FF28B129462046BDE83840FDF765
:107BCC0015BE38BD10B50446FDF708FE031FDBB229
:107BDC00012B08D92046FFF78DFF20B12046BDE8C8
:107BEC001040FDF70BBE002010BD000038B500237F
:107BFC0020254380142304460380856005610649D3
:107C0C00284600F03AF804496060284600F035F840
:107C1C00E060204638BD00BFD48E0D0030B50F4D4E
:107C2C002978BFF35B8F11F0010487B013D128467C
:107C3C00FCF73AFA78B101A8FFF7D8FF01AA214660
:107C4C000748FFF7EDF92846FCF733FA054A0649D1
:107C5C00034800F00BF8024807B030BDD8E703200A
:107C6C00DCE703206CE50320D56F0D000B460146C5
:107C7C00184600F019B9FCF70ABAFCF706BA08B5B1
:107C8C00FDF7D8FF014900F0F9B800BFF08E0D00E8
:107C9C007FB500241023CDE90234036800949E695B
:107CAC008DF8044015466B461268B0479DF80430B9
:107CBC0003F00603062B03BF009B2B60012020461C
:107CCC0004B070BD0098904214BF0120062070478C
:107CDC0010B5034B0360044600F0CDF8204610BDF0
:107CEC00308F0D0010B50446FFF7F2FF2046082137
:107CFC00FFF7C1FF204610BD2DE9F0411F46DDE91D
:107D0C000834DDF8188098450646154607D10799C2
:107D1C0000F0B4F818B165710020BDE8F081394667
:107D2C00304600F0ABF80028F6D00123C4F80080F0
:107D3C002571A371F0E738B515461C4600F09EF886
:107D4C0020B10823E36006232560237138BD73B589
:107D5C0005460C4601921E4600F090F850B9032ED1
:107D6C0008D82368019A5B692946204602B0BDE811
:107D7C007040184702B070BD10B5034B0360044649
:107D8C00FFF7A6FF204610BD908F0D0010B50446DE
:107D9C00FFF7F2FF20460C21FFF76DFF204610BDC8
:107DAC00F7B5089F974205460E4614460AD0A868B8
:107DBC0002680897156A31462246AC4603B0BDE806
:107DCC00F04060471946019300F058F8019B0028D9
:107DDC00EDD0062003B0F0BD2DE9F14F0D4619464C
:107DEC00DDE90A4BDDE90CA681461746984600F002
:107DFC0045F890B1002D3460377109DB61198A4563
:107E0C000CBF06210121B171002001B0BDE8F08F3B
:107E1C000235F9D10123B371F6E7544506D1594621
:107E2C00484600F02BF808B17771EDE7D9F8080057
:107E3C000368CDE90CA6CDE90A4BDC693A4643460A
:107E4C002946A44601B0BDE8F04F60472DE9F0414A
:107E5C0007460C4615461E46FFF76DFF48B9B86835
:107E6C0003689F692A4633462146BC46BDE8F0416B
:107E7C006047BDE8F081704700207047814208B52B
:107E8C000ED0406803782A2B0CD049680B782A2B2B
:107E9C0008BF013100F078F8B0FA80F0400908BD55
:107EAC000120FCE70020FAE710B5054C13462CB175
:107EBC000A4601460220AFF3008010BD2046FCE7C5
:107ECC000000000030B501390024A24201D100208D
:107EDC0005E0035D01340D5DAB42F6D0581B30BD9F
:107EEC000A44914200F1FF3300D1704710B511F8EC
:107EFC00014B03F8014F9142F9D110BD884210B5E6
:107F0C0001EB020402D98442234607D8431EA14246
:107F1C0008D011F8012B03F8012FF8E702440146B1
:107F2C008A4200D110BD13F8014D02F8014DF7E75C
:107F3C0002440346934200D1704703F8011BF9E752
:107F4C0038B50D4B1D68AB6B04467BB91820FDF79B
:107F5C0051FE0A4A0A4BA863C0E90023094B83600F
:107F6C000B23838101220023C0E90423AB6B002285
:107F7C001C615A6138BD00BF08E503200E33CDAB40
:107F8C0034126DE6ECDE050010F8012B11F8013B04
:107F9C00012A28BF9A42F7D0D01A7047034613F82B
:107FAC00012B002AFBD1181A0138704710B5013982
:107FBC00034632B111F8014F03F8014B013A002C82
:107FCC00F7D11A440021934200D110BD03F8011BD4
:107FDC00F9E710B5024601448A42134601D1181A3A
:107FEC0010BD1C780132002CF6D1F8E71D400D00B5
:107FFC0059400D0081400D0085400D00000000002F
:10800C0031207761732073656E7400456C65706800
:10801C00616E74732061726520707265747479205E
:10802C00636F6F6C0036453430303030312D423553
:10803C0041332D463339332D453041392D453530BB
:10804C0045323444434341394500364534303030B1
:10805C0030322D423541332D463339332D453041A5
:10806C00392D45353045323444434341394500368A
:10807C00453430303030332D423541332D46333991
:10808C00332D453041392D45353045323444434349
:10809C004139450074780072780000000000003E01
:1080AC005B4F5B3E3E6B4F6B3E1C3E7C3E1C183C5C
:1080BC007E3C181C577D571C1C5E7F5E1C00183CB8
:1080CC001800FFE7C3E7FF0018241800FFE7DBE701
:1080DC00FF30483A060E2629792926407F050507E8
:1080EC00407F05253F5A3CE73C5A7F3E1C1C080844
:1080FC001C1C3E7F14227F22145F5F005F5F060909
:10810C007F017F006689956A606060606094A2FF61
:10811C00A29408047E040810207E201008082A1C53
:10812C0008081C2A08081E101010100C1E0C1E0C1F
:10813C0030383E3830060E3E0E06000000000000BF
:10814C00005F00000007000700147F147F14242A2E
:10815C007F2A122313086462364956205000080700
:10816C000300001C2241000041221C002A1C7F1C21
:10817C002A08083E08080080703000080808080823
:10818C00000060600020100804023E5149453E008A
:10819C00427F400072494949462141494D331814E8
:1081AC00127F1027454545393C4A49493141211137
:1081BC0009073649494936464949291E0000140029
:1081CC00000040340000000814224114141414144C
:1081DC00004122140802015909063E415D594E7CAA
:1081EC001211127C7F494949363E414141227F415F
:1081FC0041413E7F494949417F090909013E4141BD
:10820C0051737F0808087F00417F41002040413FA7
:10821C00017F081422417F404040407F021C027FB6
:10822C007F0408107F3E4141413E7F090909063E0B
:10823C004151215E7F0919294626494949320301DA
:10824C007F01033F4040403F1F2040201F3F4038EC
:10825C00403F631408146303047804036159494DC7
:10826C0043007F4141410204081020004141417FFD
:10827C000402010204404040404000030708002073
:10828C00545478407F284444383844444428384473
:10829C0044287F385454541800087E090218A4A4AA
:1082AC009C787F0804047800447D40002040403DC9
:1082BC00007F1028440000417F40007C0478047843
:1082CC007C080404783844444438FC1824241818D6
:1082DC00242418FC7C080404084854545424040432
:1082EC003F44243C4040207C1C2040201C3C40301F
:1082FC00403C44281028444C9090907C4464544C4E
:10830C0044000836410000007700000041360800A8
:10831C0002010204023C2623263C1EA1A161123A52
:10832C004040207A3854545559215555794122549E
:10833C00547842215554784020545579400C1E52A3
:10834C007212395555555939545454593955545448
:10835C00580000457C410002457D420001457C40AF
:10836C007D1211127DF0282528F07C5455450020F3
:10837C0054547C547C0A097F4932494949323A4465
:10838C0044443A324A4848303A4141217A3A4240D0
:10839C002078009DA0A07D3D4242423D3D404040A2
:1083AC003D3C24FF2424487E4943662B2FFC2F2B75
:1083BC00FF0929F620C0887E090320545479410016
:1083CC0000447D413048484A32384040227A007A95
:1083DC000A0A727D0D19317D2629292F2826292973
:1083EC00292630484D402038080808080808080895
:1083FC00382F10C8ACBA2F102834FA00007B0000BC
:10840C0008142A142222142A14085500550055AABF
:10841C0055AA55AAFF55FF55FF000000FF0010108C
:10842C0010FF00141414FF001010FF00FF1010F0C8
:10843C0010F0141414FC001414F700FF0000FF00DB
:10844C00FF1414F404FC141417101F10101F101F29
:10845C001414141F00101010F0000000001F101056
:10846C0010101F10101010F010000000FF10101052
:10847C00101010101010FF10000000FF140000FF6F
:10848C0000FF00001F10170000FC04F41414171058
:10849C00171414F404F40000FF00F714141414144B
:1084AC001414F700F7141414171410101F101F14C1
:1084BC001414F4141010F010F000001F101F000022
:1084CC00001F14000000FC140000F010F01010FF4E
:1084DC0010FF141414FF141010101F00000000F0F3
:1084EC0010FFFFFFFFFFF0F0F0F0F0FFFFFF0000C8
:1084FC00000000FFFF0F0F0F0F0F3844443844FCEF
:10850C004A4A4A347E02020606027E027E02635505
:10851C004941633844443C04407E201E2006027EC0
:10852C00020299A5E7A5991C2A492A1C4C720172D2
:10853C004C304A4D4D303048784830BC625A463D3C
:10854C003E494949007E0101017E2A2A2A2A2A44F1
:10855C00445F444440514A444040444A5140000026
:10856C00FF0103E080FF000008086B6B0836123631
:10857C002436060F090F0600001818000000101012
:10858C00003040FF0101001F01011E00191D1712D0
:10859C00003C3C3C3C0000000000000000000000DF
:1085AC000000000000000000000000008D4A0D00DB
:1085BC00E9720D00A1400D0095440D0097440D008B
:1085CC00C9440D00A5440D00B7440D00D9430D005E
:1085DC0095440D00C1460D003B460D00E1440D00D5
:1085EC001F450D0059450D009F450D003D460D00E2
:1085FC00BB450D0064656661756C7420004D53427B
:10860C00004C5342003C53504953657474696E6777
:10861C00732064656661756C743E003C535049531D
:10862C00657474696E677320257325752025732016
:10863C004D4F444525753E00000000000000000031
:10864C00C94B0D009B4B0D009D4B0D000000000015
:10865C00000180000000000000000000038000000A
:10866C000000000000000007C00000000000000037
:10867C00000007C00000000000000000000FC00058
:10868C0000000000000000001FE0000000000000DF
:10869C000000001FE00000000000000000003FE0B0
:1086AC000000000000000000003FF000000000008F
:1086BC00000000007FF0000000000000001FF87FA9
:1086CC00F0000000000000003FFE7FF00000000002
:1086DC000000003FFF7FF0000000000000001FFFC3
:1086EC00FBE0000000000000000FFFF9FFC00000DD
:1086FC00000000000FFFF9FFF80000000000000769
:10870C00FFF1FFFF00000000000003FC73FFFF807F
:10871C00000000000001FE3FFFFF80000000000091
:10872C0000FF1E0FFF000000000000007FFE1FFC7A
:10873C00000000000000003FFFFFF80000000000F8
:10874C0000000FDFFFE0000000000000001F19FF19
:10875C00C0000000000000003F3CFF0000000000D3
:10876C000000007E7CF800000000000000007FFE8E
:10877C007C0000000000000000FFFFFC0000000077
:10878C0000000000FFFFFE0000000000000000FFE2
:10879C00FFFE0000000000000001FFEFFE000000E3
:1087AC000000000001FFCFFE0000000000000003ED
:1087BC00FF07FE0000000000000003FC07FE0000A5
:1087CC00000000000003F003FE00000000000000A9
:1087DC00018000FE000000000000000000007E0090
:1087EC000000000000000000003E0000000000003F
:1087FC00000000000C000000000000078000FC00DE
:10880C000003C0000000078001FC000003C0000052
:10881C0000078001FC000003C0000000078001E09D
:10882C000000001E000000078001E00000001E0098
:10883C007FE3F79FF9FDE7787BDFC0FFF7FFBFFD14
:10884C00FDFF787BDFC0FFF7FFBFFDFDFF787BDF0F
:10885C00C0F0F787BC3DE1FF787BDE00F0F787BC0A
:10886C003DE1F0787BDE0000F787803DE1E0787B2E
:10887C00DE007FF7879FFDE1E0787BDE00FFF78766
:10888C00BFFDE1E0787BDE00F0F787BC3DE1E078EE
:10889C007BDE00F0F787BC3DE1E0787BDE00F0F793
:1088AC0087BC3DE1E0787BDE00FFF7FFBFFDE1E038
:1088BC007FFBDFC0FFF7FFBFFDE1E07FFBDFC07C8C
:1088CC00F3F39F3DE1E03E7BCFC0000000000000D1
:1088DC000000000000FFFFFFFFFFFFFFFFFFFFC0D6
:1088EC00FFFFFFFFFD68DB111A31C0FFFFFFFFFD2B
:1088FC002B5AFB6AEFC0FFFFFFFFFD4B5B3B1A33AC
:10890C00C0FFFFFFFFFD6B5BDB6AFDC0000060007A
:10891C0000000000000000000000000000E000006B
:10892C00000000000000000000000001E00000005A
:10893C000000000000000000000001F0000000003A
:10894C0000000000000000000003F0000000000028
:10895C00000000000000000007F000000000000014
:10896C000000000000000007F800000000000000FC
:10897C000000000000000FF800000003C0007E00A3
:10898C000001E0007F0FF800000003C000FE0000B3
:10899C0001E000FFEFF800000003C000FE00000142
:1089AC00E000FFFFF800000003C000F00000000F23
:1089BC00007FFE7FC0000003C000F00000000F002D
:1089CC003FFE7FF83FF1FBCFFCFEF3BC3DEFE01F19
:1089DC00FE7FFF7FFBFFDFFEFEFFBC3DEFE01FC60F
:1089EC00FFFF7FFBFFDFFEFEFFBC3DEFE00FE3C7A9
:1089FC00FE787BC3DE1EF0FFBC3DEF0007FF87FC5B
:108A0C00787BC3DE1EF0F83C3DEF0001FFFFF00069
:108A1C007BC3C01EF0F03C3DEF0001F37FE03FFB59
:108A2C00C3CFFEF0F03C3DEF0003E33F807FFBC380
:108A3C00DFFEF0F03C3DEF0007E73C00787BC3DE47
:108A4C001EF0F03C3DEF0007FFBE00787BC3DE1E3E
:108A5C00F0F03C3DEF0007FFFE00787BC3DE1EF01C
:108A6C00F03C3DEF000FFFFE007FFBFFDFFEF0F060
:108A7C003FFDEFE00FFFFF007FFBFFDFFEF0F03F5D
:108A8C00FDEFE00FF9FF003E79F9CF9EF0F01F3DAE
:108A9C00E7E01FF1FF0000000000000000000000F4
:108AAC00001F80FF007FFFFFFFFFFFFFFFFFFFE0C6
:108ABC001C007F007FFFFFFFFEB46D888D18E00067
:108ACC00001F007FFFFFFFFE95AD7DB577E0000036
:108ADC000F007FFFFFFFFEA5AD9D8D19E000000686
:108AEC00007FFFFFFFFEB5ADEDB57EE0000000009E
:108AFC00000000001D4C0D00354C0D008D4A0D0082
:108B0C00E9720D00494C0D0095440D0097440D0081
:108B1C00C9440D00A5440D00B7440D00D9430D0008
:108B2C0095440D00C1460D00034E0D0097530D00EA
:108B3C0049530D0059450D009F450D003D460D0054
:108B4C00BB450D000080C0E0F0F8FCFE00010307FF
:108B5C000F1F3F7FAED580A8D300408D2000A1C849
:108B6C00DB40A4A62EAFDA02818FDA1281DA028101
:108B7C002200FF21000000000000000000000000A7
:108B8C005D550D007D550D008D4A0D00E9720D00EF
:108B9C00494C0D0095440D0097440D00C9440D003F
:108BAC00A5440D00B7440D00D9430D0095440D00AC
:108BBC00C1460D00034E0D0097530D0049530D0097
:108BCC0059450D009F450D003D460D00BB450D0060
:108BDC00776972696E672E626C650053746172748A
:108BEC0020646973636F766572696E672073657252
:108BFC0076696365732E00506565722064657669CD
:108C0C006365206973206D697373696E6721004613
:108C1C0061696C656420746F20617070656E64208E
:108C2C00706565722043656E7472616C2064657644
:108C3C006963652E00436F6E6E65637465642062B4
:108C4C00792043656E7472616C2064657669636526
:108C5C002E00446973636F6E6E6563746564206285
:108C6C00792072656D6F7465206465766963652E15
:108C7C00004475706C69636174656420636861722B
:108C8C00616374657269737469632063616E6E6F7E
:108C9C00742062652061646465642E004661696CB1
:108CAC00656420746F20617070656E64206C6F63F6
:108CBC00616C206368617261637465726973746955
:108CCC00632E000000000000000000006D5C0D0031
:108CDC00D15C0D00995E0D00FB5C0D00715C0D000C
:108CEC000000000000000000695C0D00DF5C0D005E
:108CFC006B5C0D00FF5C0D00915C0D000000000032
:108D0C0000000000675C0D00ED5C0D004D660D0071
:108D1C00035D0D00B15C0D000000000000000000C0
:108D2C00FB349B5F800000800010000000000000FE
:108D3C007BE327747BF815ACDD49A913000072F5B1
:108D4C00FB349B5F800000800010000000000000DE
:108D5C000000000000000000B76F0D00AD6F0D00AB
:108D6C00A36F0D00996F0D008D6F0D00816F0D00BD
:108D7C00BD710D00C5710D00756F0D006D6F0D008F
:108D8C00636F0D00596F0D00F5710D0000000000B0
:108D9C0000000000D56F0D001F700D00F76F0D0067
:108DAC00D76F0D00FF6F0D0007700D000F700D00D9
:108DBC0017700D00000000000000000091700D0005
:108DCC0081700D0083700D00617070000000000058
:108DDC00000000007D710D0087710D0091710D0078
:108DEC009B710D00A5710D00B1710D00BD710D00D1
:108DFC00C5710D00CD710D00D9710D00E1710D0023
:108E0C00EB710D00F5710D0000081018202830389A
:108E1C0025592D256D2D25645425483A254D3A2587
:108E2C0053257A0061736374696D6500000000005E
:108E3C00000000005D770D00C9770D00A1770D00D3
:108E4C00E9720D0071770D008D770D007F770D00A5
:108E5C009B770D005F770D0063770D00000000001D
:108E6C00000000005D780D00C5780D009B780D00AA
:108E7C00E9720D008D780D005F780D006F780D0094
:108E8C00BF780D007F780D0059780D0000000000B0
:108E9C0000000000BF790D00B5790D00AB790D0015
:108EAC0061790D009F790D0093790D00BD710D0056
:108EBC00C5710D0087790D007F790D0075790D0056
:108ECC006B790D00F5710D0000537431395F5370DF
:108EDC005F6D616B655F7368617265645F74616718
:108EEC0000000000308F0D00D58E0D00908F0D000E
:108EFC00048F0D00B48F0D004E31305F5F637878B6
:108F0C00616269763131375F5F636C6173735F7473
:108F1C007970655F696E666F4500000000000000A7
:108F2C00F88E0D00DD7C0D00F17C0D00857E0D00B2
:108F3C00857E0D005B7D0D009D7C0D00437D0D003D
:108F4C00057D0D00D17C0D00908F0D00608F0D0004
:108F5C00F88E0D004E31305F5F6378786162697610
:108F6C003132305F5F73695F636C6173735F747907
:108F7C0070655F696E666F450000000000000000C0
:108F8C00548F0D00857D0D00997D0D00857E0D00A3
:108F9C00857E0D005B7D0D009D7C0D00597E0D00C6
:108FAC00E57D0D00AD7D0D00308F0D00BC8F0D00EB
:108FBC00537439747970655F696E666F00000000D8
:108FCC00B5420D00316F0D00C16F0D006D710D00BC
:108FDC00D5720D0081740D000D770D0049770D00D1
:048FEC00C9790D0032
:048FF000000000007D
:108FF400308E0D000CE5032000000000000000008E
:10900400000000000000000000000000000000005C
:10901400000000000000000000000000000000004C
:10902400000000000000000000000000000000003C
:10903400000000000000000000000000000000002C
:10904400000000000000000000000000000000001C
:08905400000000000000000014
:10905C00FFFFFFFF00000102030405060708090AD1
:10906C000B0C0D0E0F101112131415161718191ACC
:08907C001B1C1D1E1F20280013
:0490840078563412D4
:04000003D000401CCD
:00000001FF
